:020000022000DC
:1060000000000420756302005D6302005F6302000C
:106010006163020063630200656302000000000028
:1060200000000000000000000000000067630200A4
:1060300069630200000000006B6302006D630200F0
:10604000917502006F630200497A02006F630200DB
:106050006F6302006F6302009D7802006F630200AD
:106060006F6302006F6302006F6302006F630200E0
:106070006F6302006F6302006F6302006F630200D0
:106080006F630200C16702006F6302006F6302006A
:106090005D6802006F63020051A302006F6302009B
:1060A0006F6302006F6302006F6302006F630200A0
:1060B0006F6302006F630200000000000000000038
:1060C0006F6302006F6302006F6302006F63020080
:1060D0006F6302006F6302006F6302006F63020070
:1060E0006F6302006F6302006F6302000000000034
:1060F000000000006F630200000000006F630200F8
:10610000000000000000000000000000000000008F
:10611000000000000000000000000000000000007F
:10612000000000000000000000000000000000006F
:10613000000000000000000000000000000000005F
:10614000000000000000000000000000000000004F
:10615000000000000000000000000000000000003F
:10616000000000000000000000000000000000002F
:10617000000000000000000000000000000000001F
:10618000000000000000000000000000000000000F
:1061900000000000000000000000000000000000FF
:1061A00000000000000000000000000000000000EF
:1061B00000000000000000000000000000000000DF
:1061C00000000000000000000000000000000000CF
:1061D00000000000000000000000000000000000BF
:1061E00000000000000000000000000000000000AF
:1061F000000000000000000000000000000000009F
:10620000354936480A1A02D0072291438D4634494F
:1062100034480A1A06D00722914381F309880222E2
:1062200082F3148830483149314A00F044F831484B
:106230003149324A00F03FF831483249324A00F0E1
:106240003AF832483249334A00F035F83248334997
:10625000334A00F030F833483349344A00F02BF821
:1062600033483449344A00F026F83448344900228F
:1062700000F02CF833483449002200F027F8334866
:106280003349091A082902DB002202604160314AC1
:1062900090471F481F49884205D00268043003B464
:1062A000904703BCF7E700208646EC46002000211B
:1062B000294A9047FEE7884207D0521A05D0037852
:1062C00001300B700131013AF9D17047884202D098
:1062D00002700130FAE770470000042000E003205C
:1062E0000000042000000420C0B10200982A002011
:1062F000DC2A0020D4630200D463020008AF02004D
:10630000C0B10200982A0020982A002070AF020035
:1063100070AF020070AF020070AF020070AF0200F9
:1063200070AF020070AF020070AF0200C0B1020097
:1063300004B20200DC2A0020DC2A0020DC2A002033
:10634000743400207434002074340020743400202D
:10635000745400209D630200A18C0200FEE7FEE75A
:10636000FEE7FEE7FEE7FEE7FEE7FEE7FEE7FEE705
:10637000704700BF1048804710484FF0070188431E
:1063800085460F4880470F48016841F4700101605D
:10639000BFF34F8FBFF36F8FFFF732BF0A480B4930
:1063A0000B4A884207D0521A05D0037801300B708F
:1063B0000131013AF9D170477163020000000420F5
:1063C0000D70020088ED00E070AF0200982A0020F6
:0463D000982A0020E7
:1063D4002DE9F04F394E87B04FF00009384B1B7848
:1063E4005FFA89F5AB4202D807B0BDE8F08F354BB0
:1063F400D3F800A01AF835000124D6E9001EA0F154
:106404002002C0F1200304FA02F224FA03F3134336
:1064140004FA00FC009301EA0C030293009B0EEAC9
:1064240003030393DDE9022313430AEBC50B41D0B5
:10643400009B21EA0C012EEA0303C6E9001301F0D4
:106444001DFA1AF835502049A5F12002C5F12003A0
:1064540004FA02F224FA03F31343D1E900C2AC4074
:10646400134004EA0C0105930024C3B2CDE90034BF
:10647400009A0491C5F12003A5F1200122FA03F347
:1064840002FA01F848EA03081346AB401F46DDE967
:106494000434444508BFBB420CD1DBF804304BB193
:1064A4009BF801104A1E51425141081A4142414190
:1064B4002846984709F1010990E700BF102B0020F6
:1064C400DC2A0020182B0020082B00202DE9F041A5
:1064D4008046204800F0A4FBD0BB0125A8F120048D
:1064E400C8F1200325FA03F305FA04F41C431A4BFC
:1064F400D3E9001205FA08F501EA050602EA0407E1
:1065040056EA07001E461DD1404601F0B7F9134B69
:10651400D3E9001288B129432243C3E90012D6E922
:1065240000231C430E4B0B4819681543C6E900545D
:106534000022BDE8F04100F02DBB21EA050122EA6A
:106544000402EAE721EA050522EA0404C3E9005447
:10655400BDE8F081E42A0020102B0020082B002045
:10656400E02A0020042A2DE9F34105460C4616468C
:106574003AD901F0B3F8D8B11C4B1D491D601D4B2D
:10658400DFF884801C701C4B00221E600023C1E9CC
:1065940000231A49C1E90023013CE4B20026032781
:1065A400FF2C0CD1164A1748002100F0E1FA03E051
:1065B40001F05CF80028DFD002B0BDE8F08123B21E
:1065C40005EBC30201A992788DF8052015F8330074
:1065D4008DF8066042468DF8047001F089F8013C9C
:1065E400E4B20028DCD0E7E70720E5E7182B002019
:1065F400082B0020DC2A0020E02A0020102B002099
:10660400D563020070AF0200D164020070B5084D7A
:10661400084E00242B789C4201D3002070BD3368BF
:10662400012113F8340001F0DFF80134F2E700BF70
:10663400DC2A0020182B00201FB50021039001AA9A
:1066440044F20100CDE9011100F004F805B05DF851
:1066540004FB000072B6094B1B68DB0700D500BEC3
:10666400BFF34F8F0649074BCA6802F4E062134335
:10667400CB60BFF34F8F00BFFDE700BFF0ED00E03C
:1066840000ED00E00400FA0549B152B1531E1A406E
:1066940007D1826001608380C260104670470E207B
:1066A40070470920704710B58468C2688388121B3C
:1066B400934208D3C26813400268D154C3680133BB
:1066C400C360002010BD0420FCE78268C3689A42BE
:1066D4000AD08268838813400268D35C0B70836895
:1066E400013383600020704705207047094A5378BE
:1066F40091780133DBB2994208BF002311789942A3
:106704001FBF03705078182303FB002014BF04300C
:10671400002070471C2B002073B5054600240DF1A2
:1067240007000E468DF8074000F096FB0DF10600B9
:10673400FFF7DCFF90B10670094B9DF80620456019
:106744005A709DF8070000F0ABFB24B9054B4FF4D9
:106754008012C3F80021204602B070BD0424F0E783
:106764001C2B002000E100E0024B4FF43C6043F09E
:106774000103184780AF020038B50C4B0C4C4FF4A2
:106784000032C3F8802001254FF48033C4F8483325
:10679400C4F808336560FFF7E7FF064BA5600024E3
:1067A4001C60FFF7E1FF044B1C7038BD00E100E002
:1067B40000100140382C0020292C0020F8B51F4B74
:1067C4001F491B680025C1F84051C1F84451C1F864
:1067D4004851C1F84C51C1F80051C1F804514BB3B0
:1067E400D1F8044517490968641A24F07F442F46F8
:1067F4001A68A24209D8A41A15441A7CDE691AB18F
:106804001F74D3E905209047AEB90F4A0F4B117896
:106814001B788B4205D10133DBB2022B08BF002366
:10682400137012780A4B43F822500A4B4FF480122B
:10683400C3F80021F8BD3346DAE700BF3C2C002042
:1068440000100140382C0020352C0020342C00206E
:106854002C2C002000E100E02DE9F04FA14AA249D0
:1068640013780978A14D994285B03CD00133DBB24D
:10687400022B08BF002313709D4912789D4B0F68AB
:1068840053F822003B1823F07F4300220B602B684F
:1068940016461446944613B942B12B6006E01968B3
:1068A40081420ED902B12B60091A196001272B68A5
:1068B400DFF848A201934FF00008BEB9DFF844B2F4
:1068C40066E0401A0C44D968C3F800C0D3F81CE051
:1068D40031B13A1922F07F42C3E90121DE611E463B
:1068E40001227346D7E700263746E0E73446F669C7
:1068F4007F4A63681268DFF810C2A068991A21F011
:106904007F41614500F2A680014421600122227486
:106914002A680023C4E90133E361002A40F0A3801C
:106924002C60CAE75A1C9BF80210D2B291428BF831
:10693400002004BF00228BF80020182202FB03B3BE
:106944001A799C68022A1CD0032A12D0012A1FD16A
:10695400207CE8B9D3E90312A2605A69E2609A691B
:10696400654BA2611B78002B0CBF0B46034663608A
:10697400BEE700222B681146002B67D142B12B6081
:1069840006E029680A468946002A5AD1002323745E
:106994009BF800309BF801209A42C3D12B68B8F1D0
:1069A400000F04D1019A9A4201D1002F43D0002B49
:1069B40073D0D3F800A0514D4D4BD5F804751C6825
:1069C400DFF848813E1B98F8003026F07F460336F6
:1069D4009BB94FF48033C5F84433C5F80433484BAE
:1069E4004FF400324FF00109C3F880211A60C5F852
:1069F4000090FFF7B9FE88F80090B2452CBF5444CC
:106A0400A41924F07F44C5F84045D5F80435DB1BB0
:106A140023F07F43E41B033324F07F44A3420AD9C9
:106A2400D5F80435C5F84035FFF79EFE344B4FF4D6
:106A34000032C3F80021304B00221A7005B0BDE8C3
:106A4400F08F94422CD09146D2699DE719740122AB
:106A5400DB6991E7D31A23F07F43834234BFC31A1F
:106A64000023236052E721681368994213D8591A06
:106A74001160E26154E7091AD8691A4638B103462D
:106A840018688842F7D3401A1860184613462160E4
:106A9400E061DC6111E71346F2E7FFF76DFECAE738
:106AA4004C4511D1CB692B6073B9DFF844E0012068
:106AB400CDE90212CAF80800CEF800300E4B187067
:106AC400FFF752FEDDE902121368D269C9F81C20EF
:106AD40012B11068034413602B68994218BF4FF039
:106AE400010853E7342C0020352C00203C2C0020D6
:106AF400382C00202C2C0020282C002000100140D1
:106B040000E100E01C2B0020FEFF7F00292C002068
:106B140008B5FFF731FE104B00200B2218809A7045
:106B24000E4B18600E4B18700E4B18700E4B4FF432
:106B34008012C021C3F8802183F814131A6002F173
:106B44008042A2F56F22C2F8080583F81113074B9F
:106B5400D2F804251A6008BD1C2B00203C2C002010
:106B6400342C0020352C002000E100E0382C0020DB
:106B7400074B9B784BB132B128B10368187C20B91C
:106B840059745A617047072070470820704700BF46
:106B94001C2B00202DE9F7431E4FBB7805460E46FB
:106BA4009046A3B398B304292FD943697BB3437C9C
:106BB4000024012B0DF107000CBF8946A1468DF876
:106BC400074000F049F90DF10600FFF78FFDD0B141
:106BD40001230370104B4560D3F80435C0E90498D1
:106BE400C0E902369DF806307B709DF8070000F07E
:106BF40057F924B9094B4FF48012C3F800212046F9
:106C040003B0BDE8F0830424EFE70724F7E7082482
:106C1400F5E700BF1C2B00200010014000E100E05C
:106C2400064A92783AB130B1426922B10022027424
:106C34000221FFF771BD0820704700BF1C2B002004
:106C44000648074A03780749D35C012213B104308C
:106C540001F062BB0C3001F031B900BF982A00206A
:106C6400AC2C0020682C00200648074A037807490A
:106C7400D35C012213B1043001F000BB0C3001F0ED
:106C8400C9B800BF982A0020AC2C0020692C002031
:106C940037B50578012D05D0002D30D0022D23D035
:106CA40003B030BD43681C4C19782046FFF7FBFC49
:106CB40078B18DF800500190184B68461B689847CE
:106CC400A168E368A2885B1A9A4209D3FFF7B8FF68
:106CD400E6E7A268E3689A42F2D08DF80000EBE799
:106CE4000F4B01221A70DBE7C3688DF80050019343
:106CF400FFF7A6FF094B68461B689847D0E7094988
:106D04000948FFF7E2FC10B9FFF7AEFFC8E7032319
:106D14008DF80030EEE700BF442C0020402C00200A
:106D2400542C0020692C0020582C0020F0B51F465C
:106D3400234B89B006461A600C4600293DD08A8848
:106D440020480968FFF7A0FC002834D1A289A16873
:106D54001D48FFF799FC00282DD11C4D0FCD6C4622
:106D64000FC495E80F0084E80F0073690693337C21
:106D7400174A18488DF81C70003318BF01238DF88A
:106D84001430737C002B14BF0E2300238DF81530B0
:106D9400F3680293B3680393336801936946736895
:106DA400009300F08DFB30B90B4B1870336801333E
:106DB40001D0FFF745FF09B0F0BD0720FBE700BF96
:106DC400402C0020442C0020582C002088AF0200C6
:106DD400956C0200982A0020542C002070B5084CB1
:106DE400014608482678FFF770FC054636B10023B3
:106DF4002370FFF725FF08B1FFF71EFC284670BD7E
:106E0400542C0020442C002010B501460E48FFF7F6
:106E14004AFC0446A8B90D480D4A0378D35C63B113
:106E2400043001F06DFA60B90A490748FFF74DFCD8
:106E340038B9BDE81040FFF717BF0C3001F032F845
:106E4400F1E7204610BD00BF582C0020982A0020EE
:106E5400AC2C0020692C002070B5EFF3108672B6BC
:106E64000C4A946801239CB993600B4B0B4DD3F8E7
:106E7400801029401160C3F88050D3F88410516009
:106E84004FF0FF32C3F88420047006B962B670BDB7
:106E94000370FAE76C2C002000E100E0FC06FFBD63
:106EA400084B9A6810B55AB150B9EFF3108172B615
:106EB400054A1C6814605C685460986001B962B645
:106EC40010BD00BF6C2C002000E100E001F01F02A7
:106ED4004B090121914000EB830000F013B801F04D
:106EE4001F0301229A404B0900EB8300D14300F0B9
:106EF40014B84B0901F01F0150F82300C84000F0FA
:106F04000100704750E8003F43EA010240E8002CCA
:106F14009CF0000FF6D11046704750E8003F03EA9A
:106F2400010240E8002C9CF0000FF6D11046704797
:106F340041DF7047064B10B500241C70054B1C60E4
:106F4400BFF35F8F0449054800F030F8204610BDB8
:106F5400802C0020842C0020A8AF0200782C002074
:106F640007B500230DF107008DF80730FFF774FF14
:106F7400F1EE103A23F09F03E1EE103ABFF35F8F76
:106F8400094B4022C3F884219DF80700FFF788FFCE
:106F940003F0C2F920B1FFF7CBFF03B05DF804FBA7
:106FA40020BF40BF20BFF8E700E100E00B684A685B
:106FB4004360934208BF0023016008BF43607047E9
:106FC400436843B10268916852680B44934243603A
:106FD40004BF00234360704710B50446C0B2FFF7F6
:106FE40013FF204610BD0000054B1B68082B01BF92
:106FF400044B1868B0FA80F0400918BF00207047AD
:10700400300100103401001008B54FF08043002215
:10701400C3F80C21C3F81021C3F838254FF080526F
:1070240003F54043D2F80414C3F82015D2F8081429
:10703400C3F82415D2F80C14C3F82815D2F8101488
:10704400C3F82C15D2F81414C3F83015D2F8181458
:10705400C3F83415D2F81C14C3F84015D2F8201420
:10706400C3F84415D2F82414C3F84815D2F82814E8
:10707400C3F84C15D2F82C14C3F85015D2F83014B8
:10708400C3F85415D2F83414C3F86015D2F8381480
:10709400C3F86415D2F83C14C3F86815D2F8401448
:1070A400C3F86C15D2F84424C3F87025FFF79CFF8D
:1070B40010B1384B384A1A60FFF796FF18B1374BB6
:1070C400FB22C3F81825FFF78FFF48B13449354B2D
:1070D4000A681B6822F00F0203F00F0313430B60CE
:1070E400FFF782FF18B1304B4FF400721A604FF073
:1070F4008043D3F80024D20744BF6FF00102C3F8E1
:1071040000242A4AD2F8883043F47003C2F8883045
:10711400BFF34F8FBFF36F8F4FF01023D3F80022CC
:10712400002A03DBD3F80432002B2FDA204B012290
:10713400C3F80425D3F80024002AFBD04FF0102212
:107144001221C2F80012D3F80024002AFBD04FF019
:1071540010231222C3F80422154B1A46D3F8001444
:107164000029FBD00021C3F80415D2F80034002B09
:10717400FBD0BFF34F8F0D490E4BCA6802F4E06297
:107184001343CB60BFF34F8F00BFFDE70A4B0B4A9D
:107194001A6008BD8C5600404881030000F000408E
:1071A400E40E0040580200104096024000ED00E05A
:1071B40000E001400400FA05AC2A00200090D0034E
:1071C400074B1B5C1F2B8ABF064A4FF0A04203F0FB
:1071D4001F03D2F80405D840C04300F001007047F3
:1071E400B8AF020000030050074B1B5C1F2B86BF87
:1071F40003F01F0305494FF0A041012202FA03F3F3
:10720400C1F80C35704700BFB8AF0200000300504E
:10721400074B1B5C1F2B86BF03F01F0305494FF070
:10722400A041012202FA03F3C1F80835704700BFF8
:10723400B8AF02000003005008B50020FFF7E8FFD4
:107244000120FFF7E5FF0220FFF7E2FF0320BDE87E
:107254000840FFF7DDBF08B50020FFF7C5FF012098
:10726400FFF7C2FF0220FFF7BFFF0320BDE808407D
:10727400FFF7BABF0A4B185C1F288ABF094B4FF0AF
:10728400A04300F01F00D3F804250121814021EA26
:1072940002000A40C3F80805C3F80C25704700BF74
:1072A400B8AF020000030050074B1B5C1F2B8ABFC2
:1072B400064A4FF0A04203F01F03D2F81005D8404D
:1072C400C04300F001007047B4AF02000003005057
:1072D4000B2809D00C2809D0182809D019280CBF6C
:1072E40003204FF0FF3070470020704701207047A3
:1072F40002207047014B185C704700BFB4AF020016
:10730400C20710B504460CD54FF0A0430322C3F8BE
:107314003427C3F83827C3F83C27C3F84027FFF7BE
:107324008BFFA3070AD54FF0A0430C22C3F82C27E8
:10733400C3F83027C3F86027C3F8642710BD0000E2
:1073440038B5074C051E04F1080318BF1C46236812
:107354002BB11A6822605B6828469847F7E738BD66
:10736400902C002020B9054B01225A70FFF7E8BF8A
:10737400012802D1014A9070F8E77047882C002058
:1073840020B9034B01225A70FFF7DABF704700BFE0
:10739400882C002038B50B4C237883B90A486360E5
:1073A400A3602361E36000F0C7F8054602F0B4FF70
:1073B40008B900F0CDF801232370284638BD85258F
:1073C400FBE700BF882C00206973020037B50B4C23
:1073D40000230DF107008DF80730FFF73DFDE3684A
:1073E400013BE360E56815B900F0C4F8A5709DF8A9
:1073F4000700FFF755FD03B030BD00BF882C002007
:10740400012813B509D018B103281CD002B010BD4F
:107414000F4B0122C3F88020F8E70E4C00230DF136
:1074240007008DF80730FFF717FD23780BB9FFF736
:10743400B1FFE3689DF807000133E3600123A37003
:10744400FFF72EFDE2E700F083F8FFF7BFFFDDE76B
:1074540000E100E0882C00201FB503788DF800308F
:107464004368019383688DF80830C3680393054A21
:10747400054B684653F8213052F82110984705B05F
:107484005DF804FB9C2C0020A42C00201FB503787D
:107494008DF800304368019383688DF80830C36821
:1074A4000393054A054B684653F8213052F82110DE
:1074B400984705B05DF804FB9C2C0020A42C002008
:1074C400F0B5184B0778DFF86CE043F82720164B2B
:1074D40016460A6943F827204B7F0EF807300C46FE
:1074E40084460FCC89B06D460FC594E80F0085E83B
:1074F4000F001EF80730049753B1002E0B4A69465B
:1075040008BF32460CF1040000F0DCFD09B0F0BD08
:10751400002E074A694608BF32460CF10C0000F001
:10752400A5FBF3E7A42C00209C2C00205D74020032
:1075340091740200AC2C0020044A137923B9012170
:10754400106091801846704785207047B02C002049
:10755400074B1A68D2075FBFC02283F800230122B9
:107564001A604FF080430122C3F81825704700BF0A
:1075740000E100E0044B01221A604FF08042D2F88F
:107584001834DB03FBD470470C000040154B07B5DF
:107594001A687AB100221A601B680093009B4FF0AE
:1075A40080430122C3F808230F4B587910B95A714C
:1075B4001B6898470D4B1A6882B100221A601B6839
:1075C4000193019B4FF080430222C3F80823064B2A
:1075D4001B68012003B05DF804EB184703B05DF8A5
:1075E40004FB00BF00010040B02C00200401004057
:1075F40000F1804000F5C040002382B003600368BE
:107604000193019B02B0704703681F2B83BF03F0F3
:107614001F03036001484FF0A0407047000300506F
:1076240007B5019001A8FFF7EFFF019B00EB830072
:10763400D0F8002722F44032C0F80027D0F80037F1
:1076440043EA0143C0F8003703B05DF804FB0000CF
:10765400054B4FF0FF32072843F8202084BF1B1846
:1076640083F85820704700BFB82C002010B5174C81
:1076740094F86A3043BB04F130033021FF2201390E
:1076840011F0FF0103F8012BF9D1C8B2FFF7E0FFB5
:1076940001310C29F9D1062200210D4803F02AF802
:1076A4000C4BC02283F8062340221A604FF4BE70AC
:1076B400FFF79EFF084B4FF00042C3F80423012359
:1076C40084F86A30002010BD0820FCE7B82C0020A4
:1076D4001C2D002000E100E000600040034B93F803
:1076E4006A00003018BF0120704700BFB82C00208A
:1076F400F7B53B4E3318054693F93030002B6CDA5E
:107704008B78C3F34003002B0BBF082400240C2008
:107714000820844202D1042003B0F0BD56F824703E
:10772400013743D1701946F8242080F8304013B94A
:10773400331983F858508B785A0717D4D80737D59C
:1077440001A80195FFF760FF019B00EB8300D0F8CF
:10775400003723F00203C0F800372248EA0805F096
:1077640007070123BB40875C3B43835488780A782E
:1077740010F0020028D0A40004F1804404F5C044B1
:107784002D02D4F8103523F44F3323F44073C4F896
:1077940010351204D4F8103505F47C5502F4403247
:1077A40015431D43C4F810550020B5E70134B0E774
:1077B40001A84A780195FFF727FF019B03F5E073C1
:1077C400920040F82320C8E7083C344494F8605001
:1077D40045EA821284F860209EE708209CE700BFF7
:1077E400B82C00201C2D002073B5224C2518064609
:1077F40095F93020072A19DD224492F858309B0964
:10780400032B0FD1019001A8FFF7FEFE019AD0F8D7
:107814001035D340DB0707D402213046FFF700FFC1
:1078240002B070BD012BF7D00321F6E7D3B2072BCA
:10783400F6D8930003F1804303F5C043D3F8100551
:1078440040F00100C3F8100502F14000800080B24E
:10785400FFF7CEFE0029E3D095F9303054F82330F9
:10786400002BDDD0012303FA02F2034BC3F80423F7
:10787400D6E700BFB82C00200060004007B5019097
:1078840001A8FFF7C1FE019BD0F81005D84000F015
:10789400010003B05DF804FB2DE9F04F002489B02A
:1078A400CDE90244624D4FF48072012102F180431C
:1078B40003F5C04390B21B68012B06D1D5F80433FD
:1078C4000B4202D0FFF794FE0C430432B2F5907FD2
:1078D4004FEA4101EAD1574B1B68012B0ED14FF4FB
:1078E400BE70FFF785FE4FF0A04344F00044D3F888
:1078F40010350293504BD3F81035039314F0FF0F57
:107904001AD04E4F01260025264210D0AB0003F1B9
:10791400804303F5C043D3F81005D3F8101557F886
:10792400253023B1C1F30141C0F305209847013547
:10793400082D4FEA4606E7D1002C75DA0DF1100840
:1079440000230493C8F804304FF0FF33CDE9063325
:10795400DFF8E8A0DFF8E89000252F4619F9014B7D
:10796400631C48D0E4B2012324F0C00604F00702EB
:1079740003FA02F2F00808AB191811F8083C134294
:1079840039D00AEB0603A40993F930305AF823B02E
:10799400BBF1000F08D1032C2DD118F800C04CEA1C
:1079A400020C08F800C001E0032CF6D001A80196EF
:1079B400FFF72AFE019B11F8181C03F5E07C114225
:1079C40050F82C00C0F3014005D0022813D1032C39
:1079D4000BD1214604E003280DD1032C05D102214B
:1079E4003046FFF71DFE0135EDB2BBF1000F02D0AA
:1079F40021463046D8470137042FAFD1A5B14FF007
:107A0400A0430299D3F8102503F540739142D3F8AB
:107A1400103502D10399994206D002920393049A35
:107A2400059B0692079395E709B0BDE8F08F00BF68
:107A3400006000407C61004000030050B82C00202E
:107A4400182D0020014B1B68184700BF242D00206F
:107A54000E4B984237B50D4602D0002003B030BD1E
:107A640000230DF107008DF80730FFF7F5F9084BF7
:107A74001C7914B901221D601A719DF80700FFF7E3
:107A84000FFA002CE9D01120E8E700BF00200040E5
:107A9400242D00200023435082B043580193019BBE
:107AA40002B070470A4610B54FF48E71FFF7F2FF2B
:107AB400136A9168C95C136A01331362C0F81C1518
:107AC40010BD024608B54FF492710068FFF7E2FF5B
:107AD4004FF484711068FFF7DDFF136801221A6008
:107AE40008BD8B690A4610B54FF4847123B9FFF7BA
:107AF400D1FFD0F8183510BDFFF7CCFF536AD16819
:107B0400D0F81805C854536A01335362F3E70000F0
:107B14001FB501238DF80030044BCDE90110D3E9E2
:107B240000126846904705B05DF804FB2C2D002038
:107B340030B54C4AD2F8043313F4007F85B01546AF
:107B44004FD0D2F82431002B4BD04FF49271104611
:107B5400FFF7A0FF4FF40173C2F80833424B93F8C8
:107B6400291009B9012151603E4902228DF80020F3
:107B7400D1F88024C1F8802403929A690292DA68C9
:107B840001920022C3E906226846D3E90012904715
:107B94003448D0F81C315BB133490A6A4B699A42C4
:107BA4000A464BD291F82830002B47D1FFF77AFFD1
:107BB4002C4AD2F8443193B14FF4A2711046FFF726
:107BC40069FF294B93F8291009B1012111609A69C1
:107BD4002AB100229A61586AD968FFF799FF05B063
:107BE40030BDD5F804335B07D2D5D5F80831002B66
:107BF400CED01D4C1B482146FFF773FF636AA26970
:107C04009A422346C4D1E269E1684AB12369E36038
:107C14000023606AA261E3616362FFF779FFB7E75B
:107C240094F829200AB901226A600E4A4FF40170BF
:107C3400C2F8080300229A61586AEEE74FF48E7185
:107C44000848FFF727FF51690029B1D000230291AA
:107C540091688DF80030019153616846D2E90013B0
:107C64009847A5E7002000402C2D00202DE9F8437B
:107C7400624F047991462C2202FB0472064692F864
:107C84002A200D46002A40F0B3805D490068FFF7C2
:107C9400DFFE8046002840F0AE8029684A1C10D0E0
:107CA4001F2987BF01F01F03564A0B464FF0A0421D
:107CB4000120984003F5E073C2F80805032042F858
:107CC40023006868431C0DD01F288BBF00F01F03DE
:107CD40003464C4A4FF0A04203F5E0734FF0000C0A
:107CE40042F823C03368AA6995F814C0C3F8242560
:107CF4006A7DBCF1010F4CEA0202C3F86C25C3F89B
:107D04001405C3F80C152BD1A968481C0DD01F29E4
:107D14008BBF01F01F020A463A484FF0A04002F51B
:107D2400E0724FF0000C40F822C0E868421C13D007
:107D34001F2887BF00F01F0C324A84464FF0A04230
:107D44004FF0010E0EFA0CFE0CF5E07CC2F808E5CB
:107D54004FF0030E42F82CE0C3F80805C3F81015E1
:107D64002C236343FA18C2F804902A69FA50B9F133
:107D7400000F2AD04FF48E7130682D7FFFF78AFEF2
:107D840030684FF4A271FFF785FE32681E4BC2F8CB
:107D94000433120B51B20029A8BF01F160404FEA2D
:107DA4004513BABF194802F00F0500F56140DBB274
:107DB400B4BF435580F8003302F01F02012303FAD5
:107DC40002F24909124B43F8212033680422C3F814
:107DD40000252C2303FB04730022C3E9062283F845
:107DE40029205A61012283F82A204046BDE8F883FD
:107DF4004FF00808F9E74FF01108F6E72C2D0020A2
:107E0400357B0200000300508000020014ED00E006
:107E140000E100E02DE9F047214F06794FF02C09ED
:107E240009FB067480466569002D37D16261A16043
:107E340025624FF48E71006884F82850FFF72AFEFB
:107E4400D8F80000012383602146FFF72BFE636806
:107E5400A14693B9D8F800A0226A63699A4212D362
:107E6400D8F80030D3F81C21002AFBD00122DA60B4
:107E74002C2303FB0676002373612846BDE8F087B4
:107E840094F8283043B9DAF81C31002BF8D049466D
:107E94005046FFF707FEDFE70F25E9E71125ECE77A
:107EA4002C2D00200379044A2C2101FB032358695B
:107EB400003018BF012070472C2D00202DE9F84315
:107EC400394E05792C2303FB056307465C6824B10E
:107ED40003684FF40170C3F808032C2303FB056304
:107EE400986950B1D86900283ED024B13B684FF45A
:107EF4000172C3F80423112433E09A61D9605862F3
:107F0400D8612C2303FB056393F829301BB910B9FE
:107F14003846FFF7D6FD4FF02C0909FB0568386891
:107F2400D8F80430002B34D14FF4A271FFF7B2FD1E
:107F3400C1463868D0F82431D0F80821D0F844413B
:107F4400B2B90CB9002BF4D02C2202FB0565002237
:107F5400AA6123BB2CBB95F829103B680122B1B15F
:107F64001A602046BDE8F8831961DA610120C8E788
:107F7400002BE9D1002CE7D14946FFF7B2FDD8F830
:107F84002430D8F818209A42D3D82346DCE75A6024
:107F9400E7E74FF40173C0F804330024E1E7032456
:107FA400DFE70F24DDE700BF2C2D00200023435022
:107FB40082B043580193019B02B070471FB501235F
:107FC4008DF80030044BCDE90110D3E90012684666
:107FD400904705B05DF804FB582D00207FB5374A63
:107FE400D2F82461002E48D010464FF49271FFF766
:107FF400DDFF02238DF80030D2F88034C2F88034DB
:108004000393D2F83C3502932D4BDA680192002297
:10801400C3E906226846D3E900129047274AD2F8FA
:1080240044317BB14FF4A2711046FFF7BFFF244BDC
:10803400996939B10021C3E90611D968D2F83C0520
:10804400FFF7BCFF1D4AD2F82031A3B14FF4907161
:108054001046FFF7ABFF1A4B596961B1D2F84C15C2
:108064000291002299688DF8002001915A616846B6
:10807400D3E90012904704B070BDD2F81031002B40
:10808400CCD04FF488711046FFF790FF0C4BD2F818
:108094003C0599698842C1D1DC69D96864B1D2F8D8
:1080A400005225F02005C2F800521A699C61DA607A
:1080B400DE61FFF783FFB1E79C61FAE7002000402F
:1080C400582D00202DE9F843664F06799146242265
:1080D40002FB0672044692F820200D46002A40F066
:1080E400BB8061490068FFF7B3FC8046002840F07C
:1080F400B6802868421C10D01F2887BF00F01F03D9
:108104005A4A03464FF0A0420121994003F5E07317
:10811400C2F80815032142F8231069684B1C0DD0DE
:108124001F298BBF01F01F030B46504A4FF0A0429A
:1081340003F5E0734FF0000C42F823C02368AA69EA
:1081440095F814C0C3F824256A7DBCF1010F4CEAEC
:108154000202C3F86C25C3F80C05C3F814152BD11F
:10816400A968481C0DD01F298BBF01F01F020A46C5
:108174003E484FF0A04002F5E0724FF0000C40F88A
:1081840022C0E868421C13D01F2887BF00F01F0CD0
:10819400364A84464FF0A0424FF0010E0EFA0CFE10
:1081A4000CF5E07CC2F808E54FF0030E42F82CE031
:1081B400C3F80805C3F8101524237343FA18C2F84A
:1081C40004902A69FA50B9F1000F34D04FF4887141
:1081D40020682D7FFFF7EAFE4FF490712068FFF7C7
:1081E400E5FE4FF492712068FFF7E0FE20684FF43B
:1081F400A271FFF7DBFE22681D4BC2F80433120B99
:1082040051B20029A8BF01F160404FEA4513BABF3B
:10821400184802F00F0500F56140DBB2B4BF4355C6
:1082240080F8003302F01F02012303FA02F2490925
:10823400114B43F8212023680822C3F80025242386
:1082440003FB06730022C3E906225A61012283F864
:1082540020204046BDE8F8834FF00808F9E74FF0C6
:108264001108F6E7582D0020E17F020000030050BA
:108274001003020014ED00E000E100E001F06043AF
:10828400B3F1005F2DE9F041074632D11B4B06796B
:10829400242505FB063598466C6964BB6A61A960B0
:1082A40000684FF49071FFF781FE4FF4AC713868A9
:1082B400FFF77CFE3B686A69A968C3F84415C3F8F4
:1082C400482501229A606A6862B9D3F82021D3F85C
:1082D400584152B9002CF8D00F24242303FB0686FE
:1082E400002373612046BDE8F081002C18BF0F24E1
:1082F400F3E71024F6E71124F4E700BF582D00201B
:108304000379044A242101FB03235869003018BF70
:1083140001207047582D0020F8B501F06043B3F1F7
:10832400005F04460F465ED10379304D242101FBE2
:108334000351486820B121684FF40476C1F80863FA
:10834400242101FB03539E6956B1D969002939D010
:1083540020B123684FF40472C3F80423112030E0E1
:108364009A61DF60DE614FF488712068FFF71EFEBA
:108374004FF4A2712068FFF719FE2368C3F834751F
:10838400C3F8382516BB01221A602179242202FB86
:10839400015252680ABBD3F81041D3F84421D3F8F0
:1083A4002401144302D10028F5D02246242303FBE0
:1083B40001550023984218BF03209A42AB6118BFAD
:1083C4000F20F8BD1F61DA610126CCE7D3F8002243
:1083D40042F02002C3F80022D7E74FF40472C3F836
:1083E40004230020EDE71020EBE700BF582D002008
:1083F4000220FEF73FBF00002DE9F04781460D46FD
:10840400FEF766FF0328044604D8012D04D025B3E3
:10841400022D2FD0BDE8F087194D47003A18A9184E
:10842400AE5C4A7852B1DFF86880164842464FF491
:108434000041FEF7AFFB08B988F800903B192B44C4
:108444009A78114B1A55002EE4D0104B1B68002B60
:10845400E0D03046BDE8F04718470A48FEF7E0FB95
:10846400074B04EB440213449E78074B1B5DB34255
:10847400D0D1E8E7024B00EB40041C446678E2E705
:10848400E02D0020A02D0020F92D0020F42D002047
:108494007C2D002002210078FFF7AEBF08B5094B00
:1084A4001B7853B10020FEF7B3FE0120FEF7B0FEA7
:1084B4000320BDE80840FEF7ABBEBDE80840FEF768
:1084C400BBBE00BF7D2D0020F8B57B4C237805464C
:1084D4001BB100232370FFF7E1FF172D00F2888002
:1084E400DFE805F00C17174354657680888D888D76
:1084F400959A9A9A9A9AC4C9D1D9E4E4FFF7CEFF1F
:108504006E48FEF78DFB6E4B002204461A7020461F
:10851400F8BD0020FEF754FEF8B10020FEF778FE07
:10852400022D0CBF4FF4E1614FF47A61644B1D706E
:108534004FF400404FF4FA740025E0FB01454FF47A
:108544007A7200232046294601F0C8FF0022014622
:108554005A48BDE8F840FEF71DBBFEF745FE022D64
:108564000CBFC8214FF4C871E0E70020FEF728FED5
:1085740040B10020FEF74CFE4FF44871504B0322EB
:108584001A70D5E7FEF730FEC821F7E70020FEF7A2
:1085940017FE38B10020FEF73BFE4FF47A61484BDA
:1085A4000422EDE7FEF720FE4FF4C871F7E7002040
:1085B400FEF706FE48B10020FEF72AFE404B0522D6
:1085C4001A7041F69A110022C2E7FEF70DFEF5E794
:1085D4000020FEF74FFE3A4B06221A70002240F6A6
:1085E400CD41B5E70020FEF7FFFD354B07221A7099
:1085F40000248CE701202070FEF73CFEEEE701200A
:108604002070FEF737FE00224FF48041A0E7FEF70A
:1086140022FE2B4B0C22EAE72A482B4EFEF700FBE6
:10862400D5F1110504461CD0D8B9012D13D0C823A7
:108634005D434FF400474FF4FA7000214FF47A720F
:108644000023C7FB050101F049FF224601461D48EE
:10865400FEF7A0FA04460220FEF7C6FD012333709C
:1086640055E70220FEF7D4FD0023F8E7FFF716FFD5
:10867400134B1222BBE7FFF711FF0020FEF7B4FDF6
:108684000F4B1322B3E7FFF709FF0120FEF7ACFD00
:108694000B4B1422ABE7FFF701FF0020FEF7A4FD0C
:1086A4000120FEF7A1FD064B1522A0E7FEF7D3FD3E
:1086B400034B1D709CE700BFF02D0020C02D00204F
:1086C400F82D0020802D00207D2D0020044B1B68F8
:1086D400DB0703D5034B1878FFF7F6BE704700BFDE
:1086E400EC2D0020F82D0020002910B514BF032420
:1086F4000024FEF7FFFD1F288ABF0A4B4FF0A0435A
:1087040000F01F0003EB8000D0F8002722F4403271
:10871400C0F80027D0F8003743EA0443C0F8003714
:10872400002010BD00030050032801D8FEF7BCBD93
:1087340000207047044B1B6813F0010301D0FFF7BE
:10874400C3BE1846704700BFEC2D002038B51C4B43
:1087540018601C4B10F00204054619601AD01A4B1D
:108764001A480E221A700F22DA7010229A711122FE
:108774005A72042140F26662FDF7F4FE044648B9D9
:10878400FDF744FF044628B90146114A1148FEF793
:10879400EFF90446EB0711D50120FEF7B1FD6CB9E2
:1087A40021460D4A0D48FEF7E3F9044630B90C4A58
:1087B4000C480121BDE83840FEF7DAB9204638BD3F
:1087C400EC2D0020F42D0020E02D0020BCAF020091
:1087D40099840200E0AF0200D1860200E4AF0200F7
:1087E400F5830200DCAF0200032813D8012A0BD161
:1087F400012908D100F10E02D2B200EB40000C4B6B
:108804001A540020704700220129F6D04BB24BB114
:10881400022901D007207047054B00EB40001844A3
:108824004270EEE7024900EB400008448270E8E73A
:10883400E02D0020032802D80121FFF755BF0620B0
:10884400704708B5012202210020FFF7CDFF08B1CF
:10885400072810D1072202210120FFF7C5FF08B124
:10886400072808D100210A220846FFF7BDFF10B1EE
:10887400072808BF002008BD0388102B10B502D0BC
:10888400112B1ED010BD1A4C2168B1B90122084623
:10889400FFF7AAFF08B1072824D1072202210120EB
:1088A400FFF7A2FF08B107281CD1042202210020EF
:1088B400FFF79AFF08B1072814D123680133236016
:1088C400E0E70B4A1368013B1360002BDAD1FFF792
:1088D400B8FF0028D6D0074B1B68002BD2D0BDE8C8
:1088E40010401847034B1B68002BE6D09847E4E779
:1088F400042E0020002E002008B50020FFF79AFF68
:1089040008B1062806D10120FFF794FF10B106280C
:1089140008BF002008BD00000D4B10B518600C46C0
:1089240029B10120FFF700FF40B102232370094B56
:108934001B6853B9BDE81040FFF783BFFFF7F4FE8F
:1089440008B10B23F2E72070F1E7002010BD00BF4F
:10895400002E0020042E002033DF704776DF70479E
:108964007ADF70477CDF70477FDF70478FDF7047A7
:10897400B1DF7047FDF760BE08B50020FFF7DAFEEF
:1089840008B1FDF759FEFFF7B7FF08B1FDF754FE34
:10899400FFF7E2FF18B1BDE80840FDF74DBE08BD82
:1089A4000388212B13B5044627D015D8112B1ED0CC
:1089B400132B2AD0102B1ED10720FFF7BBFE08B1C2
:1089C400FDF73AFE194BA1881948198001F075FA90
:1089D40088B1FDF731FE0EE0522B1ED0562B01D08C
:1089E4003B2B08D11321A088FFF7B8FFF0E70F4B0A
:1089F4004FF6FF721A8002B010BD002301A98088CF
:108A0400ADF80430FFF7B2FFE2E7084800231A4646
:108A140085210088FFF7A8FFDAE7044800231A46F7
:108A240019460088FFF7A4FFD2E700BFB62A00204A
:108A340070310020074B4A881B889A4208D10A8863
:108A440040F677239A4201BF8B88034A033B138085
:108A5400704700BFB62A0020B42A002008B5037866
:108A64004BB9054B3B211888FFF778FF18B1BDE8D7
:108A74000840FDF7E1BD08BDB62A0020072808B567
:108A840013D00A280DD0042819D10D4B13211888AE
:108A9400FFF764FF30F0080311D0BDE80840FDF78C
:108AA400CBBDBDE80840FFF767BF054B1A884FF6FA
:108AB400FF739A4203D1034800F03EFEEAE708BD83
:108AC400B62A0020002F002008B548B103280BD196
:108AD4000220FFF72FFE38B1BDE80840FDF7ACBD1A
:108AE400BDE80840FFF748BF08BD38B5047805461F
:108AF40054B138BD2B69185DFEF786F918B11128F9
:108B0400F8D0FDF799FD0134AA8AA242F2D82B6964
:108B1400134413F8013C0D2BEBD10A20FEF774F932
:108B24001128F9E72DE9F04F03783A4CBFB02278C9
:108B3400ADF80020012B69D023B1022B66D03FB0E1
:108B4400BDE8F08F344DA818FEF748F923780133B7
:108B5400DBB21D44237015F8012C0A2A05D00D2A16
:108B640003D02E4A12889A42E9D8012BDFF8C88034
:108B740014D9294D2A4EB8F800306A4629463046A1
:108B840001F00EFB082806D01328F4D0052802D0E3
:108B940008B1FDF751FD00232370D0E7214B0027D6
:108BA40043F0010900264FF0F40B33461E4AF4212A
:108BB40001A801F051FDF4211C48ADF802B001F008
:108BC4002BFDB8F8003016480DF1020201A901F09E
:108BD400E7FA1328054603D8154BC340DB0702D434
:108BE4002846FDF729FD4FF0320A4FF47A40C84772
:108BF400BAF1010AF9D10136142ED6D11437394607
:108C04000C4801F009FD132DC5D1CBE74068FDF7F1
:108C140013FD94E7FC2E0020082E0020B42A002027
:108C2400B82A002000B0020040B0020036B10200B1
:108C3400210108003CB10200B62A0020FDF7FCBC6B
:108C440008B50849084801F05DF808B1FDF7F4FCDF
:108C5400F721054801F06AF818B1BDE80840FDF7AE
:108C6400EBBC08BD398A02005831002008B5084A17
:108C740008480021FDF77CFF00224FF4004106481C
:108C8400FDF788FF18B1BDE80840FDF7D5BC08BD65
:108C9400298B02003CB002007C32002000B56D4DEF
:108CA4000FCDB1B005AC0FC495E803006A4B6B4A15
:108CB40001934FF4807384E80300CDE90323029306
:108CC400674A072301A905A8FEF730F808B1FDF7A4
:108CD400B3FCFDF71DFF08B1FDF7AEFC604A614827
:108CE4000121FDF745FF08B1FDF7A6FC5E4903200D
:108CF400FFF72CFD08B1FDF79FFC05A90020FFF745
:108D04000BFE08B1FDF798FCFEF714F908B1FDF766
:108D140093FC01F0C3FA08B1FDF78EFC002305A90A
:108D24000120059301F048FB08B1FDF785FC05A877
:108D340001F0AAFB08B1FDF77FFC11234B488DF825
:108D4400043001F00AFD494982B201A8FFF70AFE86
:108D540008B1FDF771FC0021082205A801F0CAFC46
:108D640043494FF0C87305A8CDE90513FFF7F8FD93
:108D740008B1FDF761FCFFF763FF3E4B3E480593E6
:108D840005A901F088F808B1FDF756FC042200217A
:108D94000DEB020001F0AEFC384B3948019301A9F8
:108DA40001F088F908B1FDF747FCAC22002105A8C1
:108DB40001F0A0FC02238DF814304FF4A063314A73
:108DC400ADF816300123ADF8603019928DF890306B
:108DD400402244F25063CDE9272305A92A4B2B48AE
:108DE4002E9300F0ECFA08B1FDF726FC0121274888
:108DF40000F0E2FA1C22002105A801F07BFC00230C
:108E04004FF42032CDE90532ADF822304FF4702210
:108E14008DF824301E4B07920A9303221D4B8DF8C4
:108E2400202005A80B9300F0A3FD08B1FDF704FC76
:108E3400194801F0F1FB194801F0EEFBFFF716FFAA
:108E44000321124800F032FB08B1FDF7F5FBFEF7F1
:108E540087F8FCE7E8AF02007C3100209C32002058
:108E6400298B02003CB00200818A020006B0020095
:108E740010003C007989020070310020EF8A020062
:108E8400B82A0020B02A0020CD8A0200002F00203A
:108E9400618A0200418C020012B002002AB0020072
:108EA4006DDF704779DF70477DDF704764DF70479F
:108EB4002DE9F04F85B000250E9CBDF83CB0278805
:108EC4000191804691469A462E46B8F80020B24257
:108ED4000CDC3DB12288013AD21B92B2FF2A3BD866
:108EE4000AF80720002005B0BDE8F08FD8F8042068
:108EF40052F82600039000220DF10B0103A8FFF79E
:108F0400D5FF0028EFD19DF80B204A4522D12288B5
:108F1400002D14BF0020022002EB09010144594531
:108F24001ADC45B9013292B2019B22800AF8023060
:108F340022880132228022880DF10B01524403A8B9
:108F4400FFF7B4FF0028CED121889DF80B200A44F6
:108F5400228001250136B8E70C20C4E72DE9F3414E
:108F6400089CBDF824501746CDE900450222064668
:108F74009846FFF79DFF50B94346102239463046C4
:108F8400CDE9084502B0BDE8F041FFF791BF02B05A
:108F9400BDE8F0812DE9F04F00231688138090F886
:108FA4002D3085B007460D46144653B3082E01D81C
:108FB4000C2027E102A8FFF773FF002840F022816C
:108FC40023880822EA54238801339BB21B2223807E
:108FD400EA542088013080B2208006220DF1090174
:108FE400284401F05EFB23889DF8082006339BB2D9
:108FF40012F0FE0218BF01222380EA5423880133B1
:109004002380BB78FBB123880433B342D0D802A8B1
:10901400FFF748FF002840F0F58023880322EA5434
:10902400238801339BB219222380EA542388BDF894
:10903400082001339BB2E9182380EA54120A4A70CB
:10904400238802332380FA789AB12388D91CB14249
:10905400AED80221E954238801339BB20121238035
:10906400E95423880B449BB22380EA5423880B449D
:1090740023807A68AAB12388D91CB14298D80221E6
:1090840092F90020E954238801339BB20A212380FA
:10909400E954238801339BB22380EA5423880133A3
:1090A40023803B89002B40F0A1803B8A5BB1CDE952
:1090B40000462B460722032107F11000FFF74EFF5D
:1090C400002840F09F803B8B5BB1CDE900462B46E6
:1090D4001522142107F11800FFF740FF002840F083
:1090E40091803A6A002A40F09080D7F82480B8F141
:1090F400000F30D0B8F804302188981C8A1C024430
:10910400B2423FF655AFFE283FF652AF03336B54DD
:10911400238801339BB2FF222380EA54238801333E
:109124009BB22380B8F80020EA54E918120A4A7066
:109134002088023080B22080B8F804205AB1D8F8D0
:10914400081000296BD0284401F0ABFA2388B8F842
:1091540004201344238097F82C30002B40F09A808D
:10916400387800284ED03B88012B58D0228802F151
:10917400020CB4453FF61CAF012805D17B780233BD
:1091840013449E42FFF414AF023EB61AB6B202A9CB
:1091940005EB0C00ADF80860FFF786FE90BB39784C
:1091A400BDF80820022900F0BA807B78934202D3EC
:1091B400B24240F2B280012940F0B3809BB29E4299
:1091C400C0F0AF80ADF808300821BDF80830FE2BA0
:1091D4003FF6EEAE22880133AB542288013292B2BC
:1091E4002280A9542288134423800BE0CDE9004651
:1091F4002B460622022107F10800FFF7AFFE0028E4
:109204003FF453AF05B0BDE8F08FB4F800C00CF1E3
:109214000603B3423FF6CCAE1188052901D80720D6
:10922400F0E76FF4486E01EB0E039BB24FF27D3E04
:109234007345F4D95388052BF1D96FF44860181895
:1092440080B27045EBD94FF6FF70814203D0834260
:1092540001D09942E3D8052305F80C302388013363
:109264009BB212212380E954238801339BB22380CB
:109274001188E954E818090A4170238802339BB223
:1092840023805288EA54E918120A4A702388023368
:1092940023802AE7BB6A002BC1D04FF000094FF0AE
:1092A4000C0A4FF0160B97F82C305FFA89F29342B0
:1092B4007FF656AFB96A0AFB02F201EB0208B8F86E
:1092C4000430981CFE283FF673AE208803332B54D9
:1092D400238801339BB2238005F803B0238801332C
:1092E4009BB223808A5AEA54E918120A4A702088E9
:1092F400023080B22080B8F804205AB1D8F808109F
:1093040000298CD0284401F0CCF92388B8F8042033
:109314001344238009F10109C5E7092155E7B24245
:10932400FBD9ADF808604FE770B5C0B14AB11688F3
:109334000024B44203D305196D789D4208D0A1429C
:1093440001D800200BE0055D01352C44A4B2F0E700
:10935400A142F6D9A31C1380005D013880B270BD10
:1093640013B50023ADF8063013460DF1060204468A
:10937400FFF7DAFF10B1BDF80600204402B010BDBB
:1093840072DF704773DF704774DF704738B50122AE
:1093940004460D46B0F83812D0F83402FFF7E0FF67
:1093A40000B1057004F13C0204F50D7104F15400A0
:1093B400BDE83840FFF7E4BF80F830107047F8B5D7
:1093C40004460F4600296DD000286BD091F87A30FE
:1093D4001BB191F89830002B66D107F178060FCEB7
:1093E4004FF0000C251D84F802C00FC50FCE0FC529
:1093F40096E8070085E8070084F830C0D7F8A43061
:109404006363D7F8A830A3634FF6FF7504F50D73B3
:10941400C4F84432A4F848520722614604F24A20B0
:1094240001F068F923780BB984F8545094F8243087
:10943400002B14BFEE231F2304F15501C4F834128A
:10944400A4F8383204F50E723846FFF7A3FD40BB8A
:1094540094F82430002B14BFEE231F2304F243118D
:10946400C4F83C12A4F8403204F5107207F13C0031
:10947400FFF790FDA8B9A369A4F848304FF48073AE
:109484000125A4F8503063692064014684F83C50F7
:10949400636404F13C0204F15400FFF771FF00B966
:1094A4002570F8BD0E20FCE70720FAE7F8B5077829
:1094B40004460D46002F00F0078100F24A26A170F1
:1094C40007220021304601F015F9E38813B1A3788F
:1094D400012B04D0E3794BB1A378022B06D1636B43
:1094E4009BB1012284F8512208209847324604F5A2
:1094F400147112F8013F5BB98A42FAD16A1E032A39
:1095040052D8DFE802F0070D111484F85132EDE768
:109514003B46F3E7A2791AB194F8242002B95BB967
:10952400E2790AB1002B41D1237A002B40D1637A2E
:10953400002B0CBF00250425636BA570002B39D0CC
:10954400033D012D36D86279A2B394F852228ABB26
:1095540084F85422012284F853220720984704F106
:109564003C0518220021284601F0C4F8E26A0123D0
:10957400511E994284F83C3001D9042A1ED1D3B239
:1095840094F8242084F851301AB1CFB1A36A84F836
:109594005230A178002384F8503004291FD8DFE822
:1095A40001F07B1126395D000025C5E70225C3E7DC
:1095B4000325C1E7002384F85332D0E70027DFE70F
:1095C4000123E4E7C4F84432C4E91063022301220E
:1095D40084F83C30802384F83120A4F84830A37800
:1095E400002B5CD1636B002B6AD1002067E002235F
:1095F400002A84F8313014BF0723032384F83C3055
:109604002369A4F848300023C4F84432E36826648C
:109614006364E4E763696364A369A4F8483012B13E
:10962400062384F83C306379B3B194F852329BB981
:1096340094F8543283B1022384F850300421204634
:10964400FFF7A4FE0028CAD1052384F8313004F5BD
:109654000D73C4F84432C2E70323F6E7E369636495
:10966400236AA4F8483012B1062384F83C306379A5
:1096740083B194F852326BB994F8543253B1022343
:1096840084F8503004212046FFF780FE0028A6D13C
:109694000623DAE70423D8E784F831309FE72A4623
:1096A400D4F8441204F15400FFF76AFE38B994F870
:1096B400301094F85400FFF765FE002892D0F8BDEE
:1096C40094F83100984790E70820F8E70388112BB5
:1096D40010B50C460AD0262B1FD0102B05D1C37B06
:1096E400012B02D18388A1F8483210BD002283885F
:1096F40081F85222B1F848229A42F6D10B79002B14
:10970400F3D101212046FFF7D1FE0028EDD0A36B51
:10971400002BEAD0BDE810401847037A013B012B27
:10972400E3D8897805230131B1FBF3F303EB830319
:10973400C91AC9B2E6E7704738B5044690F8540030
:10974400FFF722FE012384F85232002384F85432B6
:1097540084F8503006212046FFF718FE054638B934
:10976400A1782046FFF7A2FE10B1A36B03B198477E
:10977400284638BD75DF704776DF70477ADF70475B
:109784007BDF7047034B1A8882420CBF18460020C7
:10979400704700BFB8330020024B9B6903B11847E0
:1097A400704700BF9C33002073B586B23046FFF784
:1097B400E9FF044670B1164D027A2B7B9A420BD214
:1097C40000F10A013046FFF7D5FFE8B1112801D0B6
:1097D400FFF7E2FF02B070BD002303722B7C43B19C
:1097E4003B213046FFF7C8FF30F0080301D0FFF7F4
:1097F400D3FF6B69002BEDD000228DF80420ADF867
:10980400066001A89847E5E7237A01332372E1E76C
:109814009C33002013B50B46497A0F4C024669B9B4
:10982400D4E901101C7A002C18BF01465868FDF7D2
:10983400B1F908B1FFF7B0FF02B010BD00211972F1
:109844006369002BF8D00121ADF806008DF80410EF
:1098540001A89847F0E700BF9C3300204B8802889A
:109864009A4213D842889A4210D380888A8840F258
:10987400F313984294BF031AC31A934206D800F212
:10988400F310904234BF002001207047002070473D
:109894000388112B70B5014648D002D8102B1ED076
:1098A40070BD122B52D0502BFAD12F4BC288DB89BA
:1098B4009A42F5D1038A022BF2D186883046FFF70B
:1098C40061FF05460028EBD001F1120000F05BF9BE
:1098D40030BB6868FDF7A4F90028E1D009E0C37B38
:1098E400012BDDD14FF6FF70FFF74CFF054620B981
:1098F4000420BDE87040FFF74FBF1C4A8E880680E5
:10990400002303721368C5F80A300A3053684360B1
:109914001031FFF7A3FF144B6872DB89002BBFD112
:1099240029463046BDE87040FFF774BF8088FFF7D2
:1099340029FF04460028B3D04068FDF771F908B147
:10994400FFF72AFF4FF6FF732380A9E78688304686
:10995400FFF718FF05460028A2D008310A30FFF7A8
:109964007DFF6872DCE700BF9C330020CC3300200D
:10997400F8B5064648B305460FCD154F3C460FC40F
:1099840095E8070084E807003068124C3C60B0B1E9
:10999400FFF7F4FEC0B9326813682360536863604C
:1099A4000D480E4A4FF6FF7303800D4B40F8043FF9
:1099B4000021FDF7DDF8002818BF032004E020464D
:1099C400FFF7DEFE0028EBD0F8BD0E20FCE700BF59
:1099D4009C330020CC330020B8330020AD97020024
:1099E400D433002073B50191019C06466CB1002567
:1099F4002C46294601A8FDF77CFA18B106EB44036E
:109A040001349D800135142DF3D13046346002B009
:109A140070BD00002DE9F04703888488112B8CB0B9
:109A240006463CD01A2B3FD0102B17D1274DAB68DC
:109A3400DB43009369686846FDF76FFA009901A853
:109A4400FFF7D0FF0DF108094FF00008019B98457E
:109A540007D3132C13D90420FCF7EEFD0CB0BDE89A
:109A6400F08739F802AB00270137514605EB870030
:109A7400FDF735FA1D2FF7D108F10108E6E7214675
:109A84001348FDF723FA21461248FDF71FFAF37B2A
:109A9400012BE3D010482146FDF718FADEE70C4805
:109AA4002146FDF71CFAD9E7057A0C482D09012D4A
:109AB400214606D9FDF70AFA022D21460848F0D0BE
:109AC400EAE7FDF70CFA21460548EAE7F4330020FB
:109AD400FC330020F833002000340020043400203C
:109AE400083400201328014602D80248FDF701BAC1
:109AF40000207047F833002010B50446FFF7F2FF4A
:109B0400002814BF2046142010BD70B50546164623
:109B14000AB90E2070BD002313600028F9D0036831
:109B2400002BF6D0C38813F003040FD10846FFF7C7
:109B3400E3FFC0B214280BD02B7983420AD9EB88F7
:109B44002A6800FB032333602046E3E70720E1E7AC
:109B54000520DFE70420DDE7AADF70470023013892
:109B64000B70042806D8DFE800F00306080A0C008E
:109B740011230B7070472123FBE73123F9E71223EC
:109B8400F7E72223F5E7007800F001007047F0B50D
:109B94008B7891B0002B0C4608BF01238DF80E3052
:109BA40005460B88ADF80C300021164668460322A2
:109BB40000F0A0FD6946607CFFF7D0FF0DF10101C4
:109BC400A07CFFF7CBFF9DF80230E27B62F3C30376
:109BD400227C62F30413227B62F30003227D002AB9
:109BE40014BF0222012262F3420300211C2209A8AD
:109BF4008DF8023000F07EFD637B13F0300F15D03A
:109C040002AF03220021384600F074FD0DF1090172
:109C1400E07CFFF7A3FF11238DF808309DF80A308C
:109C24000E97012262F342038DF80A30637B8DF8AC
:109C340024301422A37B8DF82530002104A800F0E1
:109C440059FD03AB0493A388ADF81C30A368CDF889
:109C540014D01BB1E288ADF818200893A369002B37
:109C64002ED001AF03220021384600F043FDA36942
:109C74001A88ADF82C205A88187BADF82E20394666
:109C84005A680A920D97FFF769FFA3690DF1050160
:109C9400587BFFF763FFA2699DF80630917A61F360
:109CA400C303D17A61F30413117A927B002A61F31E
:109CB400000314BF0222012262F342038DF806302E
:109CC400E36903B10C93334604AA09A92846FFF7B4
:109CD40043FF11B0F0BD90DF7047A5DF7047B5DFDB
:109CE40070471FB50023ADF80810ADF80A106A4696
:109CF40002A903930093ADF80430FFF7ECFF05B01D
:109D04005DF804FB80B14FF0F7130360FB2303718C
:109D1400F723C3801723038141F6FB32002301613B
:109D240043818281184670470E20704730B1A1F1FB
:109D34001703E02B04D80180002070470E207047E1
:109D44000720704713B5034680880C4690B91A88DB
:109D5400232A00F084800FD8102A20D0112A41D061
:109D6400A37A3BB1E1880020FFF7B7FF10B94FF4A5
:109D74008073638102B010BD3A2A3CD0552A52D078
:109D8400242AEDD11A7A0B694A73002BE8D04DF6D8
:109D94007A21ADF8040000918DF804205BE0DB7BB0
:109DA4000A790A73012B13D0022B14D0E18823897A
:109DB4008B4205D20020FFF790FF70B90123E372B4
:109DC400217B637B8B42CBD20020FFF78AFFC7E75E
:109DD4000B88E380EAE74B88FBE7112804BF0123E3
:109DE400A372EDE7F723CB8017230B8141F6FB33F6
:109DF40048818B81B4E75B89CA88934228BF1346A4
:109E0400172B0A6938BF17230B814AB1C97A39B1B4
:109E140040F677210091ADF804306946204690471A
:109E2400002363819CE7DB88C988A072172B38BFA5
:109E340017238B4228BF0B462381FFF750FFE37A99
:109E4400002B8DD12369002B8AD040F67722009213
:109E54002289ADF8042069462046984780E7197A9C
:109E6400237B994228BF1946AFE7B0DF704766DF0E
:109E7400704710B5002104464088FFF7F8FF0346F9
:109E840008B9237210BD112801D10123F9E76368D1
:109E9400BDE81040184760B159B10378DE2B0AD0F1
:109EA4000B684360DE2303704FF6FF73438000208A
:109EB40070470E2070470820704728B10378DE2BC6
:109EC40004D14180002070470E207047082070475D
:109ED400F0B5054685B00C46F1B1E8B10B78DE2B40
:109EE4001AD182884B889A4204D10B7A13B108465E
:109EF400FFF7BFFF2B88112B32D0512B0ED0012B33
:109F04000AD12B7A012B07D1A9886288914203D107
:109F140023722046FFF7ADFF05B0F0BDAE8863881D
:109F2400B342F9D1AF79022FF6D1AD7B2B1F022BAF
:109F3400F2D800211022684600F0DCFB052D14BF86
:109F44004FF4C0730023694630468DF80070ADF8B5
:109F54000430FFF78AFF0028DED063689847DBE708
:109F64006388AA889A4204BF4FF6FF736380D3E7DD
:109F7400A8DF7047ADDF7047AEDF704762DF704720
:109F840070B505468AB00C46002962D0002860D01E
:109F94000388502B37D0572B72D0102B59D181887E
:109FA4006069002601AA0196FFF7AFFD0822314639
:109FB4000DEB020000F09EFB022302AA218AA8886E
:109FC400CDF80CD00293FFF7D5FF002841D1A36947
:109FD400002B3ED00398FFF7D6FD002839D0019B13
:109FE4000BB101221A701822002104A800F082FB90
:109FF40002238DF81030AB88ADF81830019B05941E
:10A004000793A36923E08188606902AAFFF77DFDB5
:10A014001822002104A800F06DFBAB88ADF81830BD
:10A024002189EB88029A05949942079218D12E8AC5
:10A03400022E15D16AB105F11200FFF7A4FD029BAF
:10A0440048B101221A708DF81060A3690BB104A8FD
:10A0540098470AB070BD187003238DF81030F4E7E8
:10A06400A2899A42F5D1A369002BF2D000228DF87F
:10A07400102005F1120208922A8AADF82420E6E79E
:10A084008188606902AAFFF740FD01460028E0D1FB
:10A09400029B1B78002BDCD0182204A800F02AFBBA
:10A0A40001238DF81030AB88ADF818300594029B6D
:10A0B400A6E70000F0B5384B8FB002AA04460E465E
:10A0C40003F1100C174618685968154603C5083380
:10A0D40063452A46F7D1002C5BD0002E59D0336853
:10A0E400A36121463846FFF749FF00284FD1224695
:10A0F400012512F8023B8DF8063001A92846ADF877
:10A104000450FFF735FF002841D10146202206A85C
:10A1140000F0F0FA22460223ADF8183012F80C3B96
:10A124008DF81A30BDF824301C4E6088079603F46D
:10A13400734343F440632B4306A9ADF824308DF8F0
:10A1440029508DF82A50FFF722FD00BB014620223A
:10A1540006A800F0CFFA22460323ADF8183012F80F
:10A16400043B8DF81A30BDF824306088079603F458
:10A174006F4343F480532B43ADF8243006A940F2D7
:10A1840001138DF82950ADF82A30FFF700FD0FB008
:10A19400F0BD0E20FBE700BF46B10200F400010051
:10A1A400F0B50F4687B016461C46054618B301AAFB
:10A1B40019464069FFF7A9FCD8B94FF6FF739C42D2
:10A1C4001BD0019BCBB11B78CBB13388F42B18D8AF
:10A1D4000146102202A800F08DFAAB88ADF80830D1
:10A1E40002A901232046CDE904678DF80A30FFF760
:10A1F400C3FE07B0F0BD0E20FBE70520F9E70820F9
:10A20400F7E70720F5E710DF7047000013B50446B1
:10A2140009496846FCF7CAFE019808B902B010BDA6
:10A22400D0E900312046984718B16846FCF7C8FECB
:10A23400F2E71120F2E700BF5CB1020013B5044657
:10A2440007496846FCF7B2FE019B0BB902B010BD8A
:10A254002046D3E9002190476846FCF7B1FEF3E7B6
:10A2640074B102000B4991F816335A09EC231341D7
:10A27400DB0706D5084B9A683AB94FF480030B60A4
:10A28400704742F20200FCF7D7B91A6842F4800220
:10A294001A60704700E100E06C2C0020F7B5194FFC
:10A2A4003C7864BB184E012520463570FFF7AEFF9D
:10A2B400112821D02046FFF7C1FF144B8DF803402D
:10A2C400186801900DF10300FCF7C6FD104901A8C0
:10A2D400FFF799FF0446B0FA80F0400938709DF802
:10A2E4000300FCF7DDFD3CB90A4B34701C70FFF72A
:10A2F400B9FF2846FFF7A2FF204603B0F0BD0824AB
:10A30400FAE700BF6D3400206C34002056B102001F
:10A31400596602006E340020014B1878704700BF64
:10A324006D34002007B508496846FCF73FFE019BE1
:10A3340013B903B05DF804FBD3E9002090476846E5
:10A34400FCF73EFEF3E700BF68B10200FFF7EABF87
:10A3540060DF704769DF704761DF704730B5114DCA
:10A36400ADF5017D4FF4FA740DF1020103A8ADF8C7
:10A374000240FFF7F1FF70B9294601A8FCF716FE69
:10A38400029B002BF0D003A8D3E90021904701A839
:10A39400FCF716FEF4E7052801D0FCF74DF90DF59E
:10A3A400017D30BD80B10200024B1B780BB1FFF779
:10A3B400D5BF70476F340020F0B5074685B00D4611
:10A3C40000295DD02F4B0B600C22002101A800F066
:10A3D40091F9012606232A68ADF8083001A9202046
:10A3E4008DF804708DF80660FFF7B4FF0C2200218D
:10A3F40001A800F07FF900242A688DF8056001A9FE
:10A404004020ADF80640FFF7A5FF0C22214601A825
:10A4140000F070F9F7232A68ADF8063001A923206B
:10A424008DF80470FFF796FF0C22214601A800F076
:10A4340061F92A688DF8046001A93046FFF78AFFA4
:10A444000C22214601A800F055F94FF4B0632A68A4
:10A45400019301A9A120FFF77DFF0C22214601A849
:10A4640000F048F99DF804302A6864F3000301A958
:10A47400A0208DF80430FFF76DFF204605B0F0BD35
:10A484000E20FBE7982A002008B5FFF761FF10B9FA
:10A49400014B01221A7008BD6F3400204BDF704756
:10A4A4001FB50D4C01A8FFF7F9FF70B9214602A8AA
:10A4B400FCF77CFD039B002BF4D00198D3E9002129
:10A4C400904702A8FCF77CFDF4E7052801D0FCF7CF
:10A4D400B3F804B010BD00BF8CB1020053EA020C03
:10A4E40061D02DE9F04BB3FA83F51E0007BFB2FA31
:10A4F40082F502FA05F403FA05F41646C5F12005BF
:10A504001EBF22FA05F73C43203556EA044C4FEAB5
:10A51400144418BF0134A3464FF00009C8469042C2
:10A5240071EB030C39D3094207BFB0FA80F700FA84
:10A5340007F6B1FA81F701FA07F6C7F120071EBF43
:10A5440020FA07FC46EA0C062037B6FBFBFC7F1B0F
:10A55400103F07F01F04C4F120060CFA04F42CFA8F
:10A5640006F644BF34460026202FA4BF2646002406
:10A5740054EA060C08BF012418EB040849EB060949
:10A58400A4FB027CC01B06FB02CC04FB03CC71EBD6
:10A594000C01904271EB030CC5D20B4602464946AE
:10A5A4004046BDE8F08BB2FBF3F238B504460846EA
:10A5B400A26842B1236861685D1C8D4208BF002017
:10A5C4008B4208D2D054E3682BB12168626891426F
:10A5D40001D22146984723680133236038BD70B502
:10A5E4004C1E09D41646C5B229463046FFF7DDFF96
:10A5F400013CB4F1FF3FF7D170BD10F0100F09D149
:10A6040008B500F40070002814BF30202020FFF7A4
:10A61400E6FF08BD704700000FB410B586B008AB64
:10A6240053F8044B0593002303936FF00043029304
:10A63400084B049300F0C1F8059A214601A800F0E4
:10A64400BFF8044600F0BAF8204606B0BDE8104052
:10A6540004B07047DD6F02000CB400B587B008AADF
:10A6640052F8043B0592039000200490029119468D
:10A6740001A800F0A5F807B05DF804EB02B070473C
:10A68400037853B159B10144034613F8012F12B1B1
:10A694008B42FAD10B46181A70470346FBE7034670
:10A6A400F9E7844640EA010313F0030F18D1844606
:10A6B400202A0BD32DE9F007B1E8F807A0E8F80742
:10A6C400A2F12002202AF7D2BDE8F007042A07D31A
:10A6D40051F8043B40F8043BA2F10402042AF7D2E7
:10A6E400002A05D011F8013B00F8013B013AF9D1E9
:10A6F400604670478446002A2DD010F0030F04D022
:10A7040000F8011B013A26D0F7E7C9B241EA01215A
:10A7140041EA0141202A12D3A2F120022DE9F003DB
:10A724000B460C460D460E460F4688468946A0E861
:10A73400FA03203AFBD2BDE8F00320320BD0042AFE
:10A7440005D340F8041B043A05D0042AF9D200F8D2
:10A75400011B013AFBD16046704700F1010110F082
:10A76400030F11D010F8012B002A23D010F0030F8F
:10A774000AD010F8012B002A1CD010F0030F03D0CC
:10A7840010F8012B002A15D02DE970004FF001328A
:10A794004FF0803350F8044BA4EB020525EA04057E
:10A7A4001D4000D1F6E7A0F1040070BC10F8012BA5
:10A7B400002AFBD1A0EB01007047704770470000EE
:10A7C4002DE9F04F89B007460C460392002303603D
:10A7D400DFF82CB670E3002502E045F040051C4686
:10A7E400234613F8010BA0F120023E2A00F29480C4
:10A7F40001A151F822F000BFDFA702001DA9020049
:10A804001DA90200F9A802001DA902001DA9020049
:10A814001DA90200FFA802001DA902001DA9020033
:10A824001DA902000BA902001DA9020011A9020022
:10A834001DA902001DA9020017A902001DA90200FA
:10A844001DA902001DA902001DA902001DA90200E4
:10A854001DA902001DA902001DA902001DA90200D4
:10A864001DA902001DA902001DA902001DA90200C4
:10A874001DA902001DA902001DA902001DA90200B4
:10A884001DA902001DA902001DA902001DA90200A4
:10A894001DA902001DA902001DA902001DA9020094
:10A8A4001DA902001DA902001DA902001DA9020084
:10A8B4001DA902001DA902001DA902001DA9020074
:10A8C4001DA902001DA902001DA902001DA9020064
:10A8D4001DA902001DA902001DA902001DA9020054
:10A8E4001DA902001DA902001DA902001DA9020044
:10A8F40005A9020045F0800571E745F400456EE7BF
:10A9040045F480556BE745F0200568E745F01005F0
:10A9140065E745F4007562E72A2821D1039A111DE1
:10A924000391D2F800A0BAF1000FBCBFCAF1000A2B
:10A9340045F010051878A31C2AEAEA7A2E2826D0B6
:10A944000021742847D07A2845D06C2800F0C480B0
:10A954004C2800F0C780682800F0D4801C463DE0F5
:10A96400A0F13002D2B2092A88BF4FF0000AE3D81E
:10A974004FF0000A0AEB8A0A303800EB4A0A13F84F
:10A98400010BA0F13002D2B2092AF3D9D4E7187826
:10A994002A280AD1039A111D0391116858780233A9
:10A9A4000029CEDB45F48075CBE70133A0F13002FA
:10A9B400D2B2092A88BF0021F4D8002101EB810119
:10A9C400303800EB410113F8010BA0F13002D2B290
:10A9D400092AF3D9E4E71C4614F8010B782800F29D
:10A9E4008480DFE810F08502820082008200820009
:10A9F4008200820082008200820082008200820043
:10AA04008200820082008200820082008200820032
:10AA14008200820082008200820082008200820022
:10AA24008200820082008200820082008200820012
:10AA34009B008200820082008200820082008200E9
:10AA440082008200820082008200820082008200F2
:10AA540082008200820082008200820082008200E2
:10AA640082008200820082008200820082008200D2
:10AA740082008200820082008200820082008200C2
:10AA840082008200820082008200820082008200B2
:10AA94008200820082001101820082008200820012
:10AAA400820082008200820082008200A0004701AE
:10AAB40082008200820082004701820082008200BC
:10AAC4008200BA003401F60082008200CB008200CA
:10AAD40040018200820013011C4614F8010B45F06A
:10AAE40001057BE745F001051C46C14B1E68002E9D
:10AAF40000F0E28103AB0193009153462A463946A4
:10AB0400B047D9E11878682803D05C1C45F00405E7
:10AB140064E745F008059C1C58785FE72521384612
:10AB2400FFF743FDC8E1039B1A1D03921E780AF147
:10AB3400FF3A3A4651462846FFF75FFD314638460C
:10AB4400FFF733FDA94619F0100F00F0B5813A461E
:10AB540051462020FFF743FDAEE115F0080F06D063
:10AB64003A68039B191D03911B681A70A4E1039BA7
:10AB74001A1D03921B683A681A609DE1039B1A1D13
:10AB84000392D3F800809B4BB8F1000F08BF98469E
:10AB9400464625F4007915F4807F15D04046FFF72A
:10ABA4006FFD0546AAEB050A3A4651464846FFF7AB
:10ABB40024FD002DC7D0454416F8011B3846FFF785
:10ABC400F4FCAE42F8D1BEE74046FFF7C6FD0546A9
:10ABD400E8E7039B1A1D03921B6805F08002002A14
:10ABE4000CBF0026232645F4807508211A46002B45
:10ABF40000F02C8105AB4FF0000805F4005CA6467C
:10AC040060468C460146D1E045F4005515F0800FAE
:10AC14001BD043F2780643F25803782818BF1E4627
:10AC240015F4807F01D025F4007515F4804F34D0DD
:10AC3400039B1A1D03921B6815F0040F20D01BB24E
:10AC4400002B21DA5B422D262FE00026E8E705F0F1
:10AC54008003002B0CBF0026302615F4807FE4D03F
:10AC640025F40075E1E715F4807F07D025F400751D
:10AC74000026DAE745F480450026D6E70026D4E727
:10AC840015F0080FDCD0DBB215F0200F61D105F010
:10AC94004002002A18BF202607E0039B1A1D0392D6
:10ACA4001B6815F0040F4FD09BB215F4807F14BFBE
:10ACB40025F4007501215838202800F2C48001A22F
:10ACC40052F820F0F1AB02004BAE02004BAE020092
:10ACD4004BAE02004BAE02004BAE02004BAE020084
:10ACE4004BAE02004BAE02004BAE02004BAE020074
:10ACF4004BAE020081AD02004BAE02004BAE02002F
:10AD04004BAE02004BAE020081AD02004BAE02001E
:10AD14004BAE02004BAE02004BAE02004BAE020043
:10AD24005BAD0200F1AB02004BAE02004BAE020081
:10AD34004BAE02004BAE020081AD02004BAE0200EE
:10AD44004BAE0200F1AB020015F0080FADD0DBB240
:10AD5400ABE72B26A9E71A464FF000087BB305A8FA
:10AD64004FF0000803F00703303300F8013B08F10B
:10AD74000108D2081346002AF4D120E018464FF007
:10AD84000008E3B14FF0000805F4004E4FF02C0921
:10AD940073468E46194647E002F00F00164C205CBD
:10ADA40003F8010B08F10108120906D00029F3D0B9
:10ADB40002F00F00114C205CF2E761467446A1EBEF
:10ADC400080121EAE179AAEB090AAAEB080AFF2E95
:10ADD4003FD9AAF1020A15F4007F3FD0C6F3072138
:10ADE4003846FFF7E2FBF1B23846FFF7DEFB41E0FD
:10ADF40070340020B8B1020098B10200A8B102007A
:10AE0400CDCCCCCC08AB03EB080CABFB0032D208A6
:10AE140002EB8203A0EB430330330CF80C3C08F143
:10AE2400010809280DD910460029EBD008F00303C6
:10AE3400032BE7D108AB434403F80C9C08F1010849
:10AE4400E0E77146BBE74FF00008B8E74FF00008B1
:10AE5400B5E7002E4FD115F4007F0BD13A46514689
:10AE64002846FFF7CAFBFF2E98BF4FF0000A14D8FC
:10AE7400002EB8D13A4651462846FFF7BEFB3A4663
:10AE840049463020FFF7ABFBB8F1000F11DD0DF19F
:10AE9400140908F1FF38C84403E04FF0000A9DE7A5
:10AEA400B046464616F801193846FFF77EFBC14501
:10AEB400F6D115F0100F09D114F8011B61B1252941
:10AEC4003FF489AC3846FFF770FBF5E73A46514644
:10AED4002020FFF784FBEFE7BB682BB13A68796861
:10AEE4008A423CBF00219954386809B0BDE8F08F0C
:10AEF4004FF0FF30F9E70AF1FF3A15F4007FB7D1BC
:04AF0400ACE700BFF7
:10AF080085730200000000003B970200002F00201C
:10AF1800199A0200000000007D880200000000006D
:10AF2800D1960200002F0020499D020058310020D0
:10AF38009598020000000000D59E020070310020A4
:10AF4800859F0200B82A0020A589020000000000A1
:08AF5800057402000000000076
:10AF6000ADA3020000000000A5A402000000000044
:10AF7000E42A0020000000000000000000000000A3
:10AF80000338FDD870470000FFFFFFFFFFFFFFFF02
:10AF9000FFFFFFFFFFFFFFFF0000000000000000B9
:10AFA0000000D6010601000058AF020058AF0200B1
:10AFB000040000000B0C18190D0E0F100B000300FD
:10AFC000FD8302000C000300FD8302001800030053
:10AFD000FD83020019000300FD830200802D002084
:10AFE000A02D0020C02D0020080000000600000059
:10AFF00005000000070000000000000000E0D7018D
:10B000000338FDD870474E6F726469635F554152D3
:10B0100054000D0A55415254207374617274656472
:10B020006464646464642E0D0A000D0A5541525430
:10B0300020737461727465642E0D0A007C320020E6
:10B0400041256442424343444445454141424243D1
:10B0500043444445454141424243434444454541BC
:10B0600041424243434444454541414242434344B3
:10B0700044353041414242434344444545414142C5
:10B08000424343444445454141424243434444458D
:10B090004541414242434344444545414142424384
:10B0A00043443130304141424243434444454541A9
:10B0B0004142424343444445454141424243434463
:10B0C0004445454141424243434444454541414250
:10B0D0004243434431353041414242434344444575
:10B0E0004541414242434344444545414142424334
:10B0F000434444454541414242434344444545411C
:10B10000414242434344323030414142424343444E
:10B1100044454541414242434344444545414142FF
:10B1200042434344444545414142424343444445EC
:10B13000454132343400202564200A00546F746184
:10B140006C3A202564009ECADC240EE5A9E093F346
:10B15000A3B50000406E01000007000058AF0200D8
:10B1600058AF02000800000060AF020070AF02009C
:10B170000800000058AF020060AF020008000000A5
:10B1800018AF020058AF02000800000008AF02002C
:10B1900018AF020008000000303132333435363742
:10B1A000383961626364656630313233343536373D
:10B1B0003839414243444546286E756C6C2900007D
:10B1C00000000000002000400000000000200040BF
:10B1D000000000000090D003010002001400FFFFF7
:10B1E000000000000000000000000000000000005F
:10B1F00000000000D42A0020000000006C31002074
:04B200000100040045
:040000032000637501
:00000001FF
